:020000040000fa
:080000000004040000000000f0
:020000040000fa
:100800006f9f20000e7f24000e0188000000000072
:100810000c00070000352100010020001100070036
:10082000000020000000e000020032000000020092
:100830000000000014120200000000000040da0076
:100840000000fe004440a900000c20000000e00071
:100850000300320000002000a00188004440a800ee
:100860000000060091018800800078000000eb0085
:1008700015003700e280400032a0b4009101ba00b8
:10088000e280400032a0b4009102ba00e280400051
:1008900032a0b4000002eb00472bde00f507b200e7
:1008a000602ce10004003a000059eb008301e900ec
:1008b000fdff3e00040037006128e1000100320026
:1008c0000082eb00040007001101ba000200e00002
:1008d000e8ff3a00000006003159ba008301e90040
:1008e0000c0032002159ba008301e90008003200ef
:1008f0000400e00003003a00e280400032a0b400af
:10090000f5ff370011d9ba008301e900faff3a0078
:100910008100e800e180400032a0b4000000060041
:020000040000fa
:020000040002f8
:04aff400ffff00005b
:020000040000fa
:020000040002f8
:04aff800ae030000a4
:020000040000fa
:020000040002f8
:04affc007f3e000094
:020000040000fa
:1028000000040400000000007a130400000000002f
:102810007a130400000000007a1304000000000096
:102820007a130400000000007a1304000000000086
:102830007a130400000000007a1304000000000076
:102840007a130400000000007a1304000000000066
:102850007a130400000000007a1304000000000056
:102860007a130400000000007a1304000000000046
:102870007a130400000000007a1304000000000036
:102880007a130400000000007a1304000000000026
:102890007a130400000000007a1304000000000016
:1028a0007a130400000000007a1304000000000006
:1028b0007a130400000000007a13040000000000f6
:1028c0007a130400000000007a13040000000000e6
:1028d0007a130400000000007a13040000000000d6
:1028e0007a130400000000007a13040000000000c6
:1028f0007a130400000000007a13040000000000b6
:102900007a130400000000007a13040000000000a5
:102910007a130400000000007a1304000000000095
:102920007a130400000000007a1304000000000085
:102930007a130400000000007a1304000000000075
:102940007a130400000000007a1304000000000065
:102950007a130400000000007a1304000000000055
:102960007a130400000000007a1304000000000045
:102970007a130400000000007a1304000000000035
:102980007a130400000000007a1304000000000025
:102990007a130400000000007a1304000000000015
:1029a0007a130400000000007a1304000000000005
:1029b0007a130400000000007a13040000000000f5
:1029c0007a130400000000007a13040000000000e5
:1029d0007a130400000000007a13040000000000d5
:1029e0007a130400000000007a13040000000000c5
:1029f0007a130400000000007a13040000000000b5
:102a00007a130400000000007a13040000000000a4
:102a10007a130400000000007a1304000000000094
:020000040000fa
:1000080004140000081400000c1400001014000070
:10001800141400000c1500000c1500000c1500004d
:10002800181400001c140000201400002414000000
:100038000c150000281400002c14000030140000d7
:1000480034140000381400003c1400004014000070
:1000580044140000481400000c1500000c150000a2
:100068004c140000501400005414000058140000f0
:100078005c1400000c1500006014000064140000fb
:100088000c150000681400006c14000070140000c7
:1000980074140000781400007c1400008014000020
:1000a80084140000881400000c1500000c150000d2
:1000b8000c1500008c14000090140000941400002b
:1000c800981400009c140000a0140000a414000060
:1000d800a8140000ac1400000c1500000c1500005a
:1000e8000c150000b0140000b41400000c1500003a
:1000f8000c150000b8140000bc1400000c1500001a
:100108000c1500000c1500000c1500000c15000063
:100118000c1500000c150000c01400000c150000a0
:100128000c150000c4140000c8140000cc14000012
:100138000c1500000c1500000c1500000c15000033
:10014800d01400000c1500000c1500000c15000060
:100158000c150000d41400000c1500000c1500004c
:100168000c150000d8140000dc140000e014000096
:10017800e4140000e8140000ec140000f01400007f
:10018800f4140000f8140000fc140000001500002e
:1001980004150000081500000c1500000c150000df
:1001a8000c1500000c1500000c1500000c150000c3
:1001b8000c1500000c1500000c1500000c150000b3
:1001c8000c1500000c1500000c1500000c150000a3
:1001d8000c1500000c1500000c1500000c15000093
:1001e8000c1500000c1500000c1500000c15000083
:0801f8000c1500000c150000bd
:020000040000fa
:1009200010850000dc840000b684000014850000ff
:1009300006000000ff09000001a1000001190000ed
:10094000012900004015000000260000ff00000003
:1009500075080000954000008100000019010000aa
:100960002940000091000000c000000026030000a4
:10097000550000005300000042000000200000006d
:100980004800000049000000440000002000000072
:10099000420000006f0000006f00000074000000c3
:1009a0006c0000006f0000006100000064000000a7
:1009b0006500000072000000340300004d000000dc
:1009c0006900000063000000720000006f0000007a
:1009d0006300000068000000690000007000000073
:1009e00020000000540000006500000063000000cb
:1009f000680000006e0000006f0000006c00000046
:100a00006f00000067000000790000002000000077
:100a1000490000006e000000630000002e0000008e
:100a2000040300000904000009020000290000007e
:100a30000101000000c000003209000004000000b5
:100a40000002000003000000000000000921000077
:100a50001101000000010000221d0000000700003d
:100a600005810000034000000001000007050000b0
:100a7000010300004000000001000000120100001e
:100a8000100100000000000000080000d804000071
:100a90003c00000002000000010200000001000014
:020000040000fa
:100aa0009ec0a9000080eb007024880050248800bc
:100ab0008000eb00512588006125880031258800e1
:100ac000412588008644a900f00920008024880080
:100ad000602488008804a800008020004800de0010
:100ae000c0248800048020006011b8004208dd00a6
:100af000040040000288be008100e800e48f50003e
:100b0000faff3a009424a8009624ef0094a4a900c8
:100b10009424a900028d2000124178008300200057
:100b20008040eb0007003700532488008000fd0060
:100b3000c2e8b700c3e8b700c4e8b7008000fd0012
:100b4000014178008ac4bf000038a300f6ff3a00d4
:100b500002007800d0e8b70010002000104588009f
:100b6000004588000000eb00a0468800c0468800d1
:100b700050468800848b2000c28b20008000eb0050
:100b8000758a2000538a2000011a78000119780024
:100b900001f07a0001f079000000e800e20f500057
:100ba000f9ff3a0040802000c0458800d0002000b6
:100bb00050258800808920001040880080c0b30044
:100bc00000e8b70040c8b30001e8b70001007800b2
:100bd000c7e8b70041468800000006008000eb002f
:100be00051468800010178004007200057060700a1
:100bf0008284a90000012000002488000000060073
:100c00008284a800000120005024880010002000e9
:100c1000504688000001eb008000eb0050072000e8
:100c20004a063700a208e2001b003a00100020002c
:100c300010458800014580000100e00016003a00e0
:100c400000458800b0c8bf00e24f500006003a00df
:100c5000c04580000148780081ccb300c0458000c9
:100c60001140980000000600e14f50000a003a00d1
:100c7000aa28ef0081c0b3009045800001487800a9
:100c800081892000904580001100980001c8b300c0
:100c9000904580001140980000000600aac4bf00e3
:100ca0000018a3000d003200a24580009240900081
:100cb00000c8b30080cf500007003a00c045800054
:100cc0009040900040c8b30080cf500002003a002e
:100cd0006840400010419800aa24a90000082000a4
:100ce00050248800000006008081fb000382410040
:100cf0000180fb00000042004200dd000280200075
:100d000002014000124090000074a10010419800c0
:100d10000104e00003003a00c08b2000023278009a
:100d20000300370083804100808b200082307800f0
:100d3000124090000064a0001041980000000600de
:100d4000889fbe008a1f7800004478000145780023
:100d50008184fb000938a300020032008040eb00d0
:100d6000e1ff07000928a3000300320011c0b3000f
:100d700008407800dcff07000880fb00000040000e
:100d8000a14a20000af078004f0578004f04be0009
:100d9000000006000104e000040032000080fb00b7
:100da00000004000818b2000030037000080fb0022
:100db00000004000c18b2000608278000400e00049
:100dc00002003a0004007800000006001440900081
:100dd0000064a2001042980012029800034a7800b2
:100de000144090000044b20010429800144090005b
:100df00081c8b300014070001042980004007800e0
:100e0000000006000004e0000c003a0081c0b300be
:100e1000904580000148780081892000904580003d
:100e200011009800c1c8b30090458000114098009f
:100e3000e8c05000c04580000a0037000080fb0079
:100e4000000040008180fb00010040004200dd0006
:100e500001802000010040009040900042c8b30093
:100e600082c07000114098000000060080407800a9
:100e700094c4bf000058a3000e0032000181fb00a3
:100e800002014100808b20000001410092017800a6
:100e90001300be00040420000500200000006200d2
:100ea000010020008089be001200780010186a003e
:100eb00010906a00000006009146800083c0b300d5
:100ec000e78f500009003e0081417800b1c8bf00a3
:100ed00002003a0010c0b30003003700e14f500099
:100ee00002003a0020c0b300b1e8b7000380fb0065
:100ef0000080500090468800c0458000034878007c
:100f00000089200070458800d008ab000200320044
:100f10000341780012003700034178008041eb0064
:100f20000600370070458000714680003158780017
:100f300070458800714688000241e900834f5100e6
:100f4000f8ff3a00000006007045800071468000fe
:100f50003158780070458800714688000241e900e8
:100f60000204e000f8ff3a00000006000000eb0079
:100f7000a0468800c0468800008b200021c0b30036
:100f800090cf100009003a0081c0b3009045800066
:100f900001487800018920009045800011009800e8
:100fa00081ccb30090458000160037009ec8bf007a
:100fb0000080fb00f189200091407800c808dd0026
:100fc0008080700090468000808f500007003100c4
:100fd000e1892000914078008180fb009fc8bf001c
:100fe0004800dd000100700090468800b2ff070055
:100ff00001892000c04580001100980081ccb30019
:10100000c0458000114098000000060094a4a9008b
:10101000d0e8ab0018003a00c248e20009003d00e9
:1010200020c0b300b0e8b700d808e20001003a00e1
:10103000ceff07000000eb00004588001045880047
:101040000000060081c0b300904580000148780090
:10105000818920009045800011009800c1c8b3002c
:101060009045800011409800e8c05000c0458000c5
:1010700011409800000006009848e2000b003d0077
:1010800010c0b300b0e8b700d408e20001003a0095
:10109000b6ff07000000eb000045880010458800ff
:1010a000d608e20012003a00defe370020c0b3008e
:1010b000b0e8b70081c0b3009045800001487800d7
:1010c00081892000904580001100980041c8b3003c
:1010d00090458000114098000000eb00004588001a
:1010e00010458800d608e20001003a00cdfe070056
:1010f00000000600a045800090417800318c20005f
:10110000914078008180fb00c4c8bf004800dd002a
:10111000810070000380fb00810f50000100360049
:10112000814178000380fb0000805000c3e8b700d5
:101130004800de00c4e8b7000002eb00068920008a
:10114000f50f20000f003700018c2000914078003f
:101150008180fb00c1c8bf004800dd0001007000b5
:101160008280fb0061587b00850060008000fd00ec
:10117000c0e8b7008000fd004800de00c1e8b7000d
:101180000402e80004417800834f5200eeff39006a
:10119000318c2000914078008180fb00c4c8bf00e2
:1011a0004800dd00010070000f00320081c0b30074
:1011b000904580000148780001892000904580001a
:1011c00011009800a04580001040900081ccb30031
:1011d0000068a3000100320081c8b3009045800080
:1011e000114098000000060081c0b30090458000c7
:1011f0000148780081892000904580001100980006
:1012000041c8b3009045800011409800518c2000e7
:10121000914078008180fb00c6c8bf004800dd0017
:10122000010070000100320000000100c2e8a900c6
:10123000d608e20001003a007afe0700000006002e
:10124000d0e8a8000000eb0060258800800078004e
:10125000048020006011b8004208dd000400400056
:101260000288be008100e800e48f5000faff3a00d7
:101270009424a8000000eb00738a20008040eb005b
:10128000528a200001f07900017079000000e80026
:10129000e20f5000fbff3a0001007800b6e8b7000b
:1012a0009424a90040802000c045880000802000d0
:1012b000a0458800904588009ac8bf00c7e8b700dd
:1012c00002003a0000012000050037001200200053
:1012d000718c2000100020009c04070000022000f8
:1012e0004046880000000600818920009140780077
:1012f00000c8b30080cf500027003a0000ccb300f4
:10130000d0e8b7009bc8bf00e24f50000800320091
:10131000e34f500011003200e14f50001d003a0031
:10132000e053280070468800200120001500370097
:101330009ac8bf000080fb000000400061492800ff
:10134000e08078007146880021409000d2e8b70024
:1013500031409000d3e8b700000006009ac8bf00f3
:10136000e24f500009003e009ac8bf000080fb0019
:101370000000400001492800608078007046880025
:101380001080fb009046880000000600d068ef0047
:1013900000000600d068ef00000006000040eb00ef
:1013a00090e8b70091e8b70098c8bf007f006000e0
:1013b000e10f50000b003200e20f50000b00320032
:1013c0000000e0001c003a00d0e8a8009008a80047
:1013d00060468000e10f500017003a009028a800f6
:1013e00015003700d0e8a80013003700d0e8a800a7
:1013f0009c48e200050035009cc8bf006f006000fb
:1014000000004000c18b2000040037009cc8bf00d2
:101410006f00600000004000818b20006080780039
:101420000140280010806000810f500002003a0047
:1014300010c0b30090e8b700d0e8ab000500320060
:101440000089200070468800d008a80020c0b300a2
:10145000d2e8b70000000600008b200021c0b300d6
:1014600090cf100001003a0022ff3700b068ef0073
:10147000aa08e2000a003a0081c0b300904580004b
:101480000148780081892000904580001100980073
:10149000c1c8b300904580001140980000000600cc
:1014a000aa28ef0000000600881f7800c0458000d1
:1014b000104090004600de0061046000404680005d
:1014c000e80f500008003a009ac8bf000080fb00f7
:1014d000b0248800000120009604e20001003a00d8
:1014e0004000200040468800008b200011c0b3005f
:1014f00090cf100011003a0000892000c145800003
:10150000900098006cfe0700108b200021c0b300f3
:1015100090cf100002003a0041c8b3000400370029
:1015200081c8b3000804e00001003a0081ccb30098
:10153000c0458000114098000c003700c248e2000e
:1015400009003d00518c2000914078008180fb0013
:10155000c6c8bf004800dd00010070000100320075
:1015600000000100c2e8a900b068ef004f04780055
:10157000000006009ac8bf00e14f50000b003a007f
:1015800098c8bf007f40600008003a00d0e8a8007b
:1015900099c8bf00e34f500003003a00100020003c
:1015a0006046880001003700cc28ef009a48e2002e
:1015b00067003a0098c8bf007f406000e24f5000cb
:1015c00063003a009cc8bf006f40600060003200ba
:1015d0009cc8bf006f006000e10f50005c003c0041
:1015e0004146800000022000808f500058003a00e1
:1015f000d0e8a8009c48e200090035009cc8bf0064
:101600006f00600000004000c18b2000e081780086
:101610009cc8bf006f006000518a2000080037009e
:101620009cc8bf006f00600000004000818b20005c
:10163000e08178009cc8bf006f006000718a2000c4
:1016400060c178009c48e200050035009cc8bf00de
:101650006f00600000004000c18b200004003700d4
:101660009cc8bf006f00600000004000818b20001c
:1016700003b0780099c8bf00e34f500012003a0051
:101680001300e0000b003d009c48e2000400350020
:101690009cc8bf006f006000518a20000300370023
:1016a0009cc8bf006f006000718a200001004000ec
:1016b0001014a0001340900041c8b3000140700016
:1016c00090419800000006000218a30002003a00b2
:1016d0001300e00014003d009c48e20004003500c7
:1016e0009cc8bf006f006000518a200003003700d3
:1016f0009cc8bf006f006000718a2000010040009c
:101700001014a10013409000b047b2000064a00084
:1017100090419800220020008300780050002000b3
:101720008a0307000400370013409000b047b2005e
:101730000064a000904198009cc8bf006f0060004a
:1017400000004000a14a2000010040001014a10048
:101750000000060098c8bf000046b20032003a0000
:1017600099c8bf000080fb0001002000eb0f500073
:10177000e08f58002c003e0000600100130037008d
:10178000130037002800370011003700260037000b
:1017900006003700090037001f0037000900370036
:1017a000070037000b00370014003700d0e8a8000e
:1017b000800020004046880000000600cafe370076
:1017c0009ffe3700708c200006003700f3fe3700c4
:1017d00068ff37009cc8bf000080fb00618b2000c1
:1017e0000100400070468800d008a80010c0b30077
:1017f000d2e8b700d0e8a80000000600d0e8a800b2
:101800009cc8bf000080fb00618b2000a2892000e3
:1018100012f07800000006000001eb008000eb00f1
:10182000200020004903070000000600881f780000
:101830008041eb0003007800b1e8b7000004eb0042
:10184000b8468800a8468800c846880058458800e1
:1018500003007800b0e8b700c14580001140900057
:10186000f2c7b3000240600090409800c14580007c
:101870001140900002406000904098009145800027
:101880001140900002406000904098008001fd00ef
:10189000d0e8b7008001fd00984688008001fd0077
:1018a000c2e8b700c3e8b700c4e8b7008001fd0094
:1018b000a8ff0700080178008800780030002000a9
:1018c00022030700d1fd07004f0478000000060046
:1018d000d0c2b300a4e8b700adc8bf000080fb00d1
:1018e000000178000220a1000200e00019003a0087
:1018f000c00fb2000180200001004000a045880018
:101900009045880010409000c043b20041c3b3002e
:10191000814f50000e003a0083892000a1458000cd
:10192000110090001040780000f179001100900043
:101930000000e800900098000201e800e80f510064
:10194000f6ff3a00a045800013009800b7ff37006b
:10195000c1fe3700e80f510001003a00d2fe070037
:1019600000000600881f7800dac2bf000038a3001c
:1019700005003a000000eb00a024880060248800e5
:10198000404688007f003700c808e20010003a0097
:101990000000eb00a0248800602488003025880027
:1019a000402588008644a900f00920008024880092
:1019b00060248800010037009404a80094c4bf008c
:1019c0000008a300fcff3200100020004046880001
:1019d00040468000e10f500009003a0094c4bf0067
:1019e0000068a30006003a008aa4ef008c24ef00f0
:1019f0008c04a8008c84a8002000200040468800a9
:101a000080c4bf000048a3000600320082c4bf00ab
:101a10000048a300030032000001200000248800d9
:101a20006efc070088c4bf000018a30055003a00f0
:101a30008ac4bf000008a300080032008cc4bf00a5
:101a40000008a3000500320015fc0700400020003c
:101a50004046880010002000502488008ac4bf003f
:101a60000048a300060032008cc4bf000048a30059
:101a70000300320062fc07000001200050248800af
:101a80008ac4bf000028a3000f0032008cc4bf002e
:101a90000028a30004003200120020008000eb00a8
:101aa00030072000a90207004000200050248800d1
:101ab000a4c8bf00030032000040e900a4e8b7005a
:101ac00001003a0057fc07008a44e20005003d008f
:101ad0008cc4bf0001c8b3000140600001003200a7
:101ae0006efc07008ac4bf000018a3000a00320081
:101af0008cc4bf000018a3000700320012002000b1
:101b00008000eb00f0ff2700900207008ea4ef009a
:101b1000200020005024880040468000e30f500041
:101b2000180036008cc4bf000038a3001500320036
:101b300048c0b3008ac4bf000038a30011003200bf
:101b400090248000ade8b7000080fb004400de0078
:101b5000ace8b70081002000512488000004e000b8
:101b600002003a005aff0700040037000001eb00b2
:101b7000d18a200020072000740207000844e900f1
:101b8000ecff3a008ec0a9004f0478000000060068
:101b900000002300ca22b700f0ff2c00c822b600c4
:101ba000c9c2a8007000a8008000eb00914f880017
:101bb000814f880012002000724f880030c5b300aa
:101bc000ece9b70000e02400404f8800100020003e
:101bd000504f8800020078009ee9b70001007800ad
:101be000e7e9b700a0a9ef00a2a9ef000100780083
:101bf000a4e9b700000006002ca3ef00d862a800fb
:101c0000a7fb0700e2ff37009a09e20002003a0052
:101c100000712200d04c8800d24c80000201e90003
:101c2000d24c880088c4bf000018a3001a003200fc
:101c30000200e0005a003a00cbc2bf000080fb0067
:101c40004400de000004a200614060004400dd00aa
:101c5000b12c2000914078000144a10080c07000a8
:101c600001007800cbe2b70000000000cbc2bf004b
:101c70004400de00610060004500dd00b12c200062
:101c8000914078000154a10080c0700001007800ec
:101c9000cbe2b70000000600414680000100e000f2
:101ca0000c003200e18f500002003a00cb82a90004
:101cb00003003700e28f500004003a00cb82a800f6
:101cc00000000000cba2a90000000600e48f500035
:101cd00002003a00cb82a90010003700f08f5000bc
:101ce00011003a000200e0002d003a00cbc2bf0014
:101cf0000080fb004400de000004a20061406000a0
:101d00004400dd00b12c2000914078000144a10086
:101d100080c0700001007800cbe2b7000000000036
:101d2000cba2a8000000060000022000808f500017
:101d30001b003a000200e00019003a00cbc2bf00cd
:101d40000080fb004400de000004a200614060004f
:101d50004400dd00b12c2000914078000144a10036
:101d600080c0700001007800cbe2b70000000000e6
:101d7000cbc2bf000080fb004400de000004a200d4
:101d8000614060004500dd00b12c200091407800ea
:101d90000154a10080c0700001007800cbe2b700c0
:101da00000000600e6c9bf000080fb000100200023
:101db0004a09dd00c600de00810071004a00dd0036
:101dc00022042400023b88008000fd0032e0b700be
:101dd0008000fd000081eb000208bb001000fc0049
:101de00050052000303b8800a00a2000303b8800ce
:101df00061e7a800000000000000000001c8b30077
:101e000061c7bf0001406000fdff3a00000006000e
:101e100030002400003b8800639a2000044d8000bd
:101e2000154d8000180037000080fb0001002000e5
:101e30000000520081805a008000fd0032e0b700af
:101e40008000fd001308bb00130190000288bb0056
:101e50001000fc0050052000303b8800a00a200044
:101e6000303b880061e7a80000000000000000008f
:101e700001c8b30061c7bf0001406000fdff3a0028
:101e8000a4e9ed00e4814100a4c9bf00e6ff3a00e7
:101e900061c7a900000006000400fa00e0bf9f002f
:101ea000f1bf9f0021032000914078006ff8970058
:101eb00032e0b7006fb897009081ba001001ba0005
:101ec0000100780032e0b7000200be000080fa0096
:101ed00000000600889fbe00e749e20022003a00a9
:101ee000804f80000000e0000300320010409000ae
:101ef0000004e0003f013500904f80000000e0004a
:101f000003003200104090000004e0003901350069
:101f10000000eb00a3952000a28d2000010420000a
:101f2000e27178000000e800810f5000fcff3a00e9
:101f3000804178008040eb0010c0b30095fb0700a3
:101f4000904f880010c0b300e7e9b700a0912000cf
:101f50000041eb00a195200002587800810f50004d
:101f600024013200fcff37005ac9bf00e54f500082
:101f70007000320006003e00e34f50004a0032007d
:101f80005c003e00e24f50001a013a0006003700a4
:101f9000e74f5000bb003200b6003900e84f500058
:101fa00014013a000d01370021c0b3000100780090
:101fb0001ae9b70080c3b3001be9b700010078003d
:101fc0001ce9b70014c0b300040078001de9b70095
:101fd0008041eb00030078001ee9b70040c1b30068
:101fe0001fe9b7008001fd0020e9b70021e9b70033
:101ff0008001fd0000c02e00f1ff2f00464f800041
:10200000574f8000060040008780480022e9b70053
:102010004801de000200780023e9b70001007800e3
:1020200024e9b7004808de0025e9b70080c0eb00ce
:102030000100780026e9b7009e49e20013003a004b
:1020400030c0b30026e9b70080cfb30027e9b7005e
:1020500070c5b30028e9b7000400780029e9b7008b
:10206000030078002ae9b70080c0b3002be9b7006d
:102070008001fd002ce9b7002de9b7002ee9b7007b
:102080008001fd00010078002fe9b700804f80003b
:102090000000e000c9003200104090000004e000a1
:1020a000d4003500c50037005b49e20008003a0063
:1020b00050c5b300ece9b700877f2500474f880083
:1020c00017002000574f88009e69ef00c1003700bd
:1020d00030c5b300ece9b70000e02400404f8800b1
:1020e00010002000504f880010c0b3009ee9b700d8
:1020f000b800370050c0b300e6e9b700030037006e
:1021000028ff070017fe0700e669ec00619e20002b
:10211000914078008180fb00ecc9bf000080fb008b
:102120000000e800808f5000f5ff350061c7a9006e
:10213000a8003700004d8000114d8000e10f4000e5
:10214000e08f48000e003a00b195200091407800e1
:102150008180fb005cc9bf004800dd000101700008
:10216000d1952000914078008180fb005ec9bf00be
:102170004800dd0081017000024d8800134d880089
:10218000b1952000914078008180fb005cc9bf00c0
:102190004800dd0001017000d195200091407800d9
:1021a0008180fb005ec9bf004800dd008101700036
:1021b0000004eb00004d8000114d8000820f5000a4
:1021c000838f58002300320082003700449a200099
:1021d000144278008481fb00838141008180fb00f0
:1021e000800320000100500022002000110009009f
:1021f0000200d8008580fb00010040000000400084
:1022000021962000010040009080fb0010409000cb
:102210004800dd0001007000619a200080b1780064
:102220000442e80004007800a4e9b700064d8000ed
:10223000174d800061034300e0834b00064d88008a
:10224000174d8800fc4f520001003a00f0fe0700d5
:102250000804e80088427800f19520009140780059
:102260000180fb000000d100804f5400d7ff3900ef
:1022700058003700e6fe0700a0a9ef00a2a9ef0072
:1022800054003700804f80000000e000030032005f
:10229000104090000004e0005600350070c0b3000c
:1022a0001ae9b700b1952000914078008180fb00c9
:1022b0005cc9bf004800dd0001017000d19520001d
:1022c000914078008180fb005ec9bf004800dd00be
:1022d00081017000020078001be9b7004810de00a1
:1022e0001ce9b700030078001de9b7004818de00bc
:1022f0001ee9b7005fc9bf001fe9b7008044eb00cb
:1023000029003700b3952000934178008381fb00ba
:10231000c2952000124178004811dd0003007100d1
:10232000d3952000934178008381fb00e295200043
:10233000124178004811dd00830071000981fb0023
:10234000030020000000410081804900d2fe070008
:102350008981fb00f2952000124178000281fb0088
:102360000201d100828151008381410004042000d8
:1023700003024200a891200008024200f50f20004d
:10238000054a60004801de00124298008583600023
:102390002304b0008881410085c963004838de000d
:1023a0009041980089c4e8005fc9bf000080fb002d
:1023b0000000d10080cf5400d2ff390003c4b30025
:1023c000a291200011c0b3000140780071fa07000b
:1023d000804f8800e769ef00060037009424ef0083
:1023e0000080eb00000000000000e900fdff3a0063
:1023f0000000fe004f04be0000000600ee09e200ef
:102400000100320000fe070040468000ff0f500030
:102410000400360088c4bf000018a30001003a0081
:10242000acfe0700000006002ca3ef00c9c2a80004
:102430007000a800f00f20000000e900feff3a0045
:10244000cbc2bf000068a30005003200003a800044
:102450003008b20002003200001404000000000046
:10246000620920008000eb00cbc2bf000068a3001f
:102470000200320000140400000000008100e800a7
:10248000e18f4000f8ff3a000201e900f5ff3a0051
:10249000d9fd070033fd0700d8ff0700fdff370017
:1024a0000000060000000600000006000000060014
:1024b0002f00370000000600d1c1b30010c0b300e8
:1024c0001ffa070003c4b300a28d20008040eb0078
:1024d00010c0b3002ffa0700904f880000000600dc
:1024e00060468000e10f500017003a00504680001f
:1024f000e10f500014003a008824a9008000eb008e
:102500005146880000e12000e04c8800010078007e
:1025100001e120000000e800810f5000fdff3a00bb
:102520009444a80080702000e04c88000000eb007c
:10253000817020000000e800810f5000fdff3a008c
:102540009c29ef009444a90000000600e10f500010
:1025500003003200e30f500004003a00020037008d
:10256000d5ff070001003700d1ff0700100005006c
:1025700098c8bf007f406000e14f500047003a001c
:102580009c48e20045003a0099c8bf00e64f500061
:102590001b003a00b1892000914078007b40400048
:1025a00080cf5000040032000040e80080cf50008f
:1025b00013003a0008003700708c200011c0b300ef
:1025c00090cf10000e003a0060522800704688003c
:1025d0009000200007003700708c200011c0b3006d
:1025e00090cf100006003a0080492800704688000d
:1025f000d00120009046880000ccb300d0e8b7009e
:1026000098c8bf000046b20001c2b300814f50001d
:1026100022003a0099c8bf00e34f50001400320076
:1026200003003e00e24f50001c003a000500370056
:10263000ea4f500009003200eb4f500017003a00fb
:1026400012003700509f20007046880010002000c4
:102650009046880010ccb3000a00370000c8b300d1
:10266000d0e8b7009bc8bf00f5e9b700000006003e
:10267000409f20007046880010002000904688008f
:1026800010c8b300d0e8b7000000060000c8b300cf
:10269000d0e8b7009ac8bf00f4e9b7000000060010
:020000040000fa
:1026a000ee0900000600000002000000010000002a
:1026b000000000009a090000540000000000000023
:1026c000da080000c000000000000000f40900006b
:1026d000020000000000000010080000ca00000016
:1026e00000000000000800001000000000000000d2
:0426f00000000000e6
:020000040000fa
:0826f4000040da000000fe00c6
:00000001FF
